{
  "contractName": "virtualBitcon",
  "abi": [
    {
      "anonymous": false,
      "inputs": [
        {
          "indexed": true,
          "internalType": "address",
          "name": "_owner",
          "type": "address"
        },
        {
          "indexed": true,
          "internalType": "address",
          "name": "_spender",
          "type": "address"
        },
        {
          "indexed": false,
          "internalType": "uint256",
          "name": "_value",
          "type": "uint256"
        }
      ],
      "name": "Approval",
      "type": "event"
    },
    {
      "anonymous": false,
      "inputs": [
        {
          "indexed": true,
          "internalType": "address",
          "name": "_from",
          "type": "address"
        },
        {
          "indexed": true,
          "internalType": "address",
          "name": "_to",
          "type": "address"
        },
        {
          "indexed": false,
          "internalType": "uint256",
          "name": "_value",
          "type": "uint256"
        }
      ],
      "name": "Transfer",
      "type": "event"
    },
    {
      "constant": true,
      "inputs": [
        {
          "internalType": "address",
          "name": "",
          "type": "address"
        },
        {
          "internalType": "address",
          "name": "",
          "type": "address"
        }
      ],
      "name": "allowance",
      "outputs": [
        {
          "internalType": "uint256",
          "name": "",
          "type": "uint256"
        }
      ],
      "payable": false,
      "stateMutability": "view",
      "type": "function"
    },
    {
      "constant": true,
      "inputs": [
        {
          "internalType": "address",
          "name": "",
          "type": "address"
        }
      ],
      "name": "balanceOf",
      "outputs": [
        {
          "internalType": "uint256",
          "name": "",
          "type": "uint256"
        }
      ],
      "payable": false,
      "stateMutability": "view",
      "type": "function"
    },
    {
      "constant": true,
      "inputs": [],
      "name": "name",
      "outputs": [
        {
          "internalType": "string",
          "name": "",
          "type": "string"
        }
      ],
      "payable": false,
      "stateMutability": "view",
      "type": "function"
    },
    {
      "constant": true,
      "inputs": [],
      "name": "standard",
      "outputs": [
        {
          "internalType": "string",
          "name": "",
          "type": "string"
        }
      ],
      "payable": false,
      "stateMutability": "view",
      "type": "function"
    },
    {
      "constant": true,
      "inputs": [],
      "name": "symbol",
      "outputs": [
        {
          "internalType": "string",
          "name": "",
          "type": "string"
        }
      ],
      "payable": false,
      "stateMutability": "view",
      "type": "function"
    },
    {
      "constant": true,
      "inputs": [],
      "name": "totalSupply",
      "outputs": [
        {
          "internalType": "uint256",
          "name": "",
          "type": "uint256"
        }
      ],
      "payable": false,
      "stateMutability": "view",
      "type": "function"
    },
    {
      "constant": false,
      "inputs": [
        {
          "internalType": "uint256",
          "name": "_initialSupply",
          "type": "uint256"
        }
      ],
      "name": "virtualBitcoin",
      "outputs": [],
      "payable": false,
      "stateMutability": "nonpayable",
      "type": "function"
    }
  ],
  "bytecode": "0x60c0604052600e60808190526d2b34b93a3ab0b62134ba31b7b4b760911b60a090815261002f91600091906100a5565b50604080518082019091526004808252637642544360e01b602090920191825261005b916001916100a5565b5060408051808201909152600f8082526e07642544320546f6b656e2076312e3608c1b6020909201918252610092916002916100a5565b5034801561009f57600080fd5b50610140565b828054600181600116156101000203166002900490600052602060002090601f016020900481019282601f106100e657805160ff1916838001178555610113565b82800160010185558215610113579182015b828111156101135782518255916020019190600101906100f8565b5061011f929150610123565b5090565b61013d91905b8082111561011f5760008155600101610129565b90565b61035d8061014f6000396000f3fe608060405234801561001057600080fd5b506004361061007d5760003560e01c806370a082311161005b57806370a082311461012157806395d89b4114610147578063d0a5fea41461014f578063dd62ed3e1461016e5761007d565b806306fdde031461008257806318160ddd146100ff5780635a3b7e4214610119575b600080fd5b61008a61019c565b6040805160208082528351818301528351919283929083019185019080838360005b838110156100c45781810151838201526020016100ac565b50505050905090810190601f1680156100f15780820380516001836020036101000a031916815260200191505b509250505060405180910390f35b61010761022a565b60408051918252519081900360200190f35b61008a610230565b6101076004803603602081101561013757600080fd5b50356001600160a01b0316610288565b61008a61029a565b61016c6004803603602081101561016557600080fd5b50356102f4565b005b6101076004803603604081101561018457600080fd5b506001600160a01b038135811691602001351661030b565b6000805460408051602060026001851615610100026000190190941693909304601f810184900484028201840190925281815292918301828280156102225780601f106101f757610100808354040283529160200191610222565b820191906000526020600020905b81548152906001019060200180831161020557829003601f168201915b505050505081565b60035481565b6002805460408051602060018416156101000260001901909316849004601f810184900484028201840190925281815292918301828280156102225780601f106101f757610100808354040283529160200191610222565b60046020526000908152604090205481565b60018054604080516020600284861615610100026000190190941693909304601f810184900484028201840190925281815292918301828280156102225780601f106101f757610100808354040283529160200191610222565b336000908152600460205260409020819055600355565b60056020908152600092835260408084209091529082529020548156fea265627a7a723158202fe26dc5f3b6fc6b4ca45e5cfe68c3d768e3aba04f5ef90fb8065675952c72ee64736f6c63430005100032",
  "source": "pragma solidity >= 0.5.0;\r\n\r\n//Contract public variables\r\ncontract virtualBitcon {\r\n    string public name = \"VirtualBitcoin\";\r\n    string public symbol = \"vBTC\";\r\n    string public standard = \"vBTC Token v1.0\";\r\n    uint256 public totalSupply;\r\n\r\n    //Transfer event defined\r\n    event Transfer(\r\n        address indexed _from,\r\n        address indexed _to,\r\n        uint256 _value\r\n    );\r\n\r\n    //Approval event defined\r\n    event Approval(\r\n        address indexed _owner,\r\n        address indexed _spender,\r\n        uint256 _value\r\n    );\r\n\r\n    //Map addresses\r\n    mapping(address => uint256) public balanceOf;\r\n    mapping(address => mapping (address => uint256 )) public allowance;\r\n\r\n    //Set initial token supply\r\n    function virtualBitcoin (uint256 _initialSupply) public {\r\n        balanceOf[msg.sender] = _initialSupply;\r\n        totalSupply = _initialSupply;\r\n    }\r\n    //Transfer function\r\n    // function transfer(address _to, uint256 _value) public returns (bool success) {\r\n    //     require(balanceOf[msg.sender] >= _value);\r\n\r\n    //     balanceOf[msg.sender] -= _value;\r\n    //     balanceOf[_to] += _value;\r\n\r\n    //     emit Transfer(msg.sender, _to, _value);\r\n\r\n    //     return true;\r\n    // }\r\n\r\n}",
  "sourcePath": "/mnt/c/Users/Xman/Documents/BIT_2020_SEM_1/HIT401/vBTC/contracts/virtualBitcoin.sol",
  "compiler": {
    "name": "solc",
    "version": "0.5.16+commit.9c3226ce.Emscripten.clang"
  },
  "schemaVersion": "3.0.23",
  "updatedAt": "2020-03-16T04:00:52.913Z",
  "devdoc": {
    "methods": {}
  },
  "userdoc": {
    "methods": {}
  }
}