{
  "contractName": "virtualBitcoin",
  "abi": [
    {
      "inputs": [
        {
          "internalType": "uint256",
          "name": "_initialSupply",
          "type": "uint256"
        }
      ],
      "payable": false,
      "stateMutability": "nonpayable",
      "type": "constructor"
    },
    {
      "constant": true,
      "inputs": [
        {
          "internalType": "address",
          "name": "",
          "type": "address"
        },
        {
          "internalType": "address",
          "name": "",
          "type": "address"
        }
      ],
      "name": "allowance",
      "outputs": [
        {
          "internalType": "uint256",
          "name": "",
          "type": "uint256"
        }
      ],
      "payable": false,
      "stateMutability": "view",
      "type": "function"
    },
    {
      "constant": true,
      "inputs": [
        {
          "internalType": "address",
          "name": "",
          "type": "address"
        }
      ],
      "name": "balanceOf",
      "outputs": [
        {
          "internalType": "uint256",
          "name": "",
          "type": "uint256"
        }
      ],
      "payable": false,
      "stateMutability": "view",
      "type": "function"
    },
    {
      "constant": true,
      "inputs": [],
      "name": "name",
      "outputs": [
        {
          "internalType": "string",
          "name": "",
          "type": "string"
        }
      ],
      "payable": false,
      "stateMutability": "view",
      "type": "function"
    },
    {
      "constant": true,
      "inputs": [],
      "name": "standard",
      "outputs": [
        {
          "internalType": "string",
          "name": "",
          "type": "string"
        }
      ],
      "payable": false,
      "stateMutability": "view",
      "type": "function"
    },
    {
      "constant": true,
      "inputs": [],
      "name": "symbol",
      "outputs": [
        {
          "internalType": "string",
          "name": "",
          "type": "string"
        }
      ],
      "payable": false,
      "stateMutability": "view",
      "type": "function"
    },
    {
      "constant": true,
      "inputs": [],
      "name": "totalSupply",
      "outputs": [
        {
          "internalType": "uint256",
          "name": "",
          "type": "uint256"
        }
      ],
      "payable": false,
      "stateMutability": "view",
      "type": "function"
    }
  ],
  "bytecode": "0x60c0604052600e60808190526d2b34b93a3ab0b62134ba31b7b4b760911b60a090815261002f91600091906100de565b50604080518082019091526004808252637642544360e01b602090920191825261005b916001916100de565b5060408051808201909152600f8082526e07642544320546f6b656e2076312e3608c1b6020909201918252610092916002916100de565b5034801561009f57600080fd5b50604051610494380380610494833981810160405260208110156100c257600080fd5b5051336000908152600460205260409020819055600355610179565b828054600181600116156101000203166002900490600052602060002090601f016020900481019282601f1061011f57805160ff191683800117855561014c565b8280016001018555821561014c579182015b8281111561014c578251825591602001919060010190610131565b5061015892915061015c565b5090565b61017691905b808211156101585760008155600101610162565b90565b61030c806101886000396000f3fe608060405234801561001057600080fd5b50600436106100625760003560e01c806306fdde031461006757806318160ddd146100e45780635a3b7e42146100fe57806370a082311461010657806395d89b411461012c578063dd62ed3e14610134575b600080fd5b61006f610162565b6040805160208082528351818301528351919283929083019185019080838360005b838110156100a9578181015183820152602001610091565b50505050905090810190601f1680156100d65780820380516001836020036101000a031916815260200191505b509250505060405180910390f35b6100ec6101f0565b60408051918252519081900360200190f35b61006f6101f6565b6100ec6004803603602081101561011c57600080fd5b50356001600160a01b031661024e565b61006f610260565b6100ec6004803603604081101561014a57600080fd5b506001600160a01b03813581169160200135166102ba565b6000805460408051602060026001851615610100026000190190941693909304601f810184900484028201840190925281815292918301828280156101e85780601f106101bd576101008083540402835291602001916101e8565b820191906000526020600020905b8154815290600101906020018083116101cb57829003601f168201915b505050505081565b60035481565b6002805460408051602060018416156101000260001901909316849004601f810184900484028201840190925281815292918301828280156101e85780601f106101bd576101008083540402835291602001916101e8565b60046020526000908152604090205481565b60018054604080516020600284861615610100026000190190941693909304601f810184900484028201840190925281815292918301828280156101e85780601f106101bd576101008083540402835291602001916101e8565b60056020908152600092835260408084209091529082529020548156fea265627a7a7231582080a93bfd9d518055233ec05d7a739912b1e8f13f8ff72e65baaeb63974dd10dc64736f6c63430005100032",
  "source": "pragma solidity >=0.5.0;\r\n\r\n//Contract public variables\r\ncontract virtualBitcoin {\r\n    string public name = \"VirtualBitcoin\";\r\n    string public symbol = \"vBTC\";\r\n    string public standard = \"vBTC Token v1.0\";\r\n    uint256 public totalSupply;\r\n\r\n    // //Transfer event defined\r\n    // event Transfer(\r\n    //     address indexed _from,\r\n    //     address indexed _to,\r\n    //     uint256 _value\r\n    // );\r\n\r\n    // //Approval event defined\r\n    // event Approval(\r\n    //     address indexed _owner,\r\n    //     address indexed _spender,\r\n    //     uint256 _value\r\n    // );\r\n\r\n    // //Map addresses\r\n    mapping(address => uint256) public balanceOf;\r\n    mapping(address => mapping (address => uint256 )) public allowance;\r\n\r\n    //Set initial token supply\r\n    constructor(uint256 _initialSupply) public {\r\n        balanceOf[msg.sender] = _initialSupply;\r\n        totalSupply = _initialSupply;\r\n    }\r\n    //Transfer function\r\n    // function transfer(address _to, uint256 _value) public returns (bool success) {\r\n    //     require(balanceOf[msg.sender] >= _value);\r\n\r\n    //     balanceOf[msg.sender] -= _value;\r\n    //     balanceOf[_to] += _value;\r\n\r\n    //     emit Transfer(msg.sender, _to, _value);\r\n\r\n    //     return true;\r\n    // }\r\n\r\n}",
  "sourcePath": "/mnt/c/Users/Xman/Documents/BIT_2020_SEM_1/HIT401/vBTC/contracts/virtualBitcoin.sol",
  "compiler": {
    "name": "solc",
    "version": "0.5.16+commit.9c3226ce.Emscripten.clang"
  },
  "schemaVersion": "3.0.23",
  "updatedAt": "2020-03-16T06:01:52.931Z",
  "networkType": "ethereum",
  "devdoc": {
    "methods": {}
  },
  "userdoc": {
    "methods": {}
  }
}